:020000040800F2
:10000000100400206D1A0008291300082B130008A3
:100010002D1300082F130008311300080000000002
:100020000000000000000000000000003313000882
:1000300035130008000000003713000839130008CA
:10004000B11A0008B51A0008B91A0008BD1A00084C
:10005000C11A0008C51A0008C91A0008CD1A0008FC
:10006000D11A0008D51A0008D91A0008DD1A0008AC
:10007000E11A0008E51A0008E91A0008ED1A00085C
:10008000F11A0008F51A0008F91A0008FD1A00080C
:10009000011B0008051B0008091B00080D1B0008B8
:1000A000111B0008151B0008191B00081D1B000868
:1000B000211B0008251B00083B130008291B000812
:1000C0002D1B0008311B0008351B0008391B0008D8
:1000D0003D1B000861130008411B0008451B000878
:1000E000491B00084D1B0008511B000810F00703B6
:1000F000DFF8141A0A684FF6FF010A40DFF80C1AFD
:1001000051EA03210A43DFF8001A0A607047DFF85A
:10011000F8090068C0F302207047012210F01F01A7
:100120008A40DFF8EC1903005BB25B0941F8232039
:10013000704710B4020052B2002A0AD50A01DFF853
:10014000D439040064B214F00F04234403F8042CDF
:1001500005E00A01DFF8C039040064B21A5510BC8A
:10016000704770B4030013F00704D4F107000528AA
:1001700001D3042001E0D4F10700251D072D01D291
:10018000002500E0E51E012616FA00F0401E0140A1
:10019000A940012010FA05F56D1E2A401143080000
:1001A00070BC7047DFF87409006850F00100DFF898
:1001B0006C1908607047DFF864090068400810F0A7
:1001C00001007047DFF85419096831F0F80151EA6D
:1001D000C001DFF8482911607047DFF84419096849
:1001E000890889000143DFF8382911607047DFF87A
:1001F0003009006810F00C007047DFF82419096816
:1002000031F0F0010143DFF8182911607047DFF881
:100210001019096831F4E0610143DFF80429116025
:100220007047DFF8FC18096831F460510143DFF8CA
:10023000F0281160704781B0DFF8E81809680143C1
:10024000DFF8E0281160DFF8DC1809680140009150
:10025000009901B0704781B0DFF8CC1809680143FC
:10026000DFF8C4281160DFF8C01809680140009168
:10027000009901B07047DFF8B4180968C908C900CF
:100280000143DFF8A82811607047DFF8A008006874
:1002900010F007007047042808D1DFF894180968A7
:1002A00051F00401DFF88828116007E0DFF88018BA
:1002B000096831F00401DFF878281160704701689F
:1002C00051F0010101607047016851F08001016047
:1002D0007047026A0A4302627047F0B4012901D1F3
:1002E000002316E0042901D1012312E0102901D1D5
:1002F00002230EE0402901D103230AE0B1F5807FFB
:1003000001D1042305E0B1F5806F01D1052300E0A0
:10031000062310F11804DFF81C281D00EDB2525D11
:10032000141925680426DFF810281F00FFB2D25DDB
:10033000964035432560F0BC7047F0B4012901D1E7
:10034000002316E0042901D1012312E0102901D174
:1003500002230EE0402901D103230AE0B1F5807F9A
:1003600001D1042305E0B1F5806F01D1052300E040
:10037000062310F11804DFF8BC271D00EDB2525D12
:10038000141925680426DFF8B0271F00FFB2D25DDC
:100390009640B5432560F0BC7047F0B4012901D107
:1003A000002316E0042901D1012312E0102901D114
:1003B00002230EE0402901D103230AE0B1F5807F3A
:1003C00001D1042305E0B1F5806F01D1052300E0E0
:1003D000062310F11804DFF85C271D00EDB2525D12
:1003E000141925680826DFF850271F00FFB2D25DD8
:1003F000964035432560F0BC7047426832F0700289
:100400000A4342607047816831F080018160704723
:10041000416C51F4804141647047C16851F0100152
:10042000C1607047C16851F40051C16070470169F3
:1004300031F490410161416931F02A014161704715
:10044000C1F30F2202617047C1F30F22426170476E
:10045000C368C1F30F225340C3607047DFF8DC0666
:10046000006830F0E060DFF8D4160860DFF8CC06F2
:10047000006850F00070DFF8C41608607047DFF8BD
:10048000C016096851F48011DFF8B4261160DFF856
:10049000B016096851F00061DFF8A4261160DFF89A
:1004A000A016096851F40031DFF89426116000218C
:1004B000082926DADFF88826126852F40032DFF8BD
:1004C00080361A60C20708D5DFF87426126852F029
:1004D0002002DFF86C361A6007E0DFF86426126845
:1004E00052F40012DFF858361A60DFF8542612680A
:1004F00052F00202DFF848361A60C0B24008491CC8
:10050000D6E7DFF83C16096851F40061DFF83026C1
:100510001160DFF82C16096851F00061DFF8202621
:100520001160704780B50120FFF795FE5FF08050A5
:10053000FFF781FE0320FFF7D9FDFFF78FFF00F0E3
:100540005EF800F082FA00F006F900F08AF900F097
:1005500031FA00F083F800F0E6F901215FF0804005
:10056000FFF7B7FE4FF480715FF08040FFF7B1FEF8
:100570004FF480515FF08040FFF7ABFE5FF08040AA
:10058000FFF79DFE0121DFF8BC05FFF7A2FE102159
:10059000DFF8B005FFF79DFEDFF8A805FFF78FFE37
:1005A0000121DFF8A405FFF794FEDFF89C05FFF7B3
:1005B0002FFFDFF89405FFF782FE1021DFF88C058E
:1005C000FFF787FEDFF88405FFF727FFDFF87C05DC
:1005D000FFF775FE0020FFF752FFDFF87405006893
:1005E00050F02000DFF868150860DFF86815DFF8C4
:1005F0006805FFF72DFFC82000F0D6FAF5E780B5B3
:100600000020FFF738FEFFF740FE002801D000F081
:10061000B5FA1020FFF7D6FDFFF7C4FDFFF7CBFDBD
:100620000128FBD10020FFF7E8FD0020FFF7EFFDD8
:100630000020FFF7F6FD0020FFF7CFFDFFF7D7FD05
:100640000028FBD1DFF8140500F0A6FA0420FFF71C
:1006500022FEDFF8080500F0BAFA01BD80B598B0B7
:1006600006A8142100F0BEFA10A8202100F0BAFA62
:100670006846182100F0B6FA0BA8142100F0B2FA6F
:100680004FF40060FFF7E7FD4F20ADF818000020A1
:100690000790FF2008900020099000208DF8280086
:1006A00006A9DFF8A40400F0B4FADFF89C04FFF711
:1006B0000BFE0121DFF89004FFF76FFE6020109021
:1006C00000201190002012903220139000201490EE
:1006D00000201590002016900020179010AA0121EC
:1006E000DFF8640400F0D6FA0121DFF85C04FFF7BC
:1006F000F4FD0021DFF85004FFF77FFEDFF8480427
:10070000FFF781FE00200090002001900020029061
:1007100000208DF80C000020ADF80E004FF40050C2
:100720000490002005906946DFF81C0400F0DEFA12
:100730000420FFF790FDDFF81C040B9009200C90BB
:1007400002200D9000200E900BA9DFF8140400F099
:100750005BFC19B000BD80B592B00DA8142100F06B
:1007600041FA6846202100F03DFA08A8142100F063
:1007700039FA0120FFF75FFD4F20ADF8340000206B
:100780000E90FF200F90002010900DA95FF0804088
:1007900000F03FFA5FF08040FFF796FD01215FF027
:1007A0008040FFF7FAFD60200090002001900020BB
:1007B000029032200390002004906A4601215FF0ED
:1007C000804000F067FA01215FF08040FFF785FD6F
:1007D0004FF480715FF08040FFF7DFFD0020019053
:1007E000002002906A464FF480715FF0804000F074
:1007F00051FA4FF480715FF08040FFF79EFD4FF497
:1008000080515FF08040FFF7C8FD0020019000207C
:1008100002906A464FF480515FF0804000F03AFA4F
:100820004FF480515FF08040FFF757FD00215FF0EB
:100830008040FFF7E2FD5FF08040FFF7E4FD042019
:10084000FFF709FD40F60D5008900920099002209D
:100850000A9000200B9008A9C14800F0D5FB13B006
:1008600000BD80B592B00DA8142100F0BBF905A819
:10087000202100F0B7F96846142100F0B3F90220F6
:10088000FFF7D9FC4F20ADF8340000200E90FF2078
:100890000F90002010900DA9AA4800F0BAF9A948BD
:1008A000FFF712FD0121A748FFF777FD60200590B3
:1008B0000020069000200790322008900020099028
:1008C00005AA01219F4800F0E5F901219D48FFF7A5
:1008D00004FD10219B48FFF760FD002006900020DA
:1008E000079005AA1021974800F0D4F910219548E7
:1008F000FFF7F3FC00219348FFF77FFD9148FFF7D6
:1009000082FD0420FFF7A7FC4CF2C00000900920F4
:10091000019002200290002003906946904800F068
:1009200073FB13B000BD00B58DB008A8142100F012
:1009300059F96846202100F055F90420FFF77BFCA7
:10094000FFF7E5FB00220021FFF70BFC01001E2052
:10095000FFF7EFFB1E20FFF7E0FB4F20ADF8200074
:100960000020099042F210700A9000200B9008A914
:10097000764800F04EF97548FFF7A6FC302000904D
:10098000002001900020029000200390002004909D
:100990006A4610216D4800F07DF910216B48FFF781
:1009A000CCFC00216948FFF728FD6848FFF72BFDC4
:1009B0000DB000BD00B58BB005A8182100F012F9EC
:1009C0006846142100F00EF94FF48040FFF743FC15
:1009D0000420FFF740FC63480090092001900320A9
:1009E00002900020039069465D4800F00DFB5E48D0
:1009F0000090042001906946594800F005FBFFF77C
:100A000086FB00220021FFF7ACFB01002520FFF749
:100A100090FB2520FFF781FB4FF416500590002036
:100A2000069000200790002008900C2009900020DC
:100A30000A9005A94D4800F083FB4C48FFF7F7FCEE
:100A40004A48FFF7EFFC0BB000BD00B585B0684623
:100A5000142100F0C7F82020FFF7FDFB0420FFF76A
:100A6000FAFB0820FFF7F7FB41493D48FFF7ECFC94
:100A700045F250013848FFF7E7FC36493648FFF7A2
:100A8000DFFC3C48009001200190022002900020F1
:100A900003906946324800F0B7FA374800900120C9
:100AA00001900220029000200390012004906946EA
:100AB0002B4800F0A9FA40F20110009004200190A8
:100AC0006946254800F0A0FA45F250000090012048
:100AD00001900220029000200390002004906946BB
:100AE0001D4800F091FA1B4800900120019002205F
:100AF000029000200390012004906946164800F0FF
:100B000083FA05B000BD00000CED00E00000FA051E
:100B100000E100E018ED00E000E400E00010024019
:100B2000041002401C100240181002400020024035
:100B300010E000E0981A0008A01A00080400014024
:100B40001008014000040040002C01400008004053
:100B50000C38014001000104000C014000127A0031
:100B600000080140020002040400040400380140AF
:100B70003A3218040A0208043030100470470000AA
:100B8000B0FBF1F2521E134B1A600022124B1A6096
:100B90000522124B1A60704710B504004FF47A71A9
:100BA0002000FFF7EDFF10BD81B00C4909680091EE
:100BB000009910F1010F00D0401C002805D0074912
:100BC0000968C903F9D5401EF7E701B07047044929
:100BD0000860704714E000E018E000E010E000E07A
:100BE00000000020002200F0F5BA0000816270478A
:100BF000C16270470163704741637047816370470A
:100C0000C163704701647047416951F0010141615E
:100C1000704770B504000D0000202668DFF8081347
:100C20008C420AD0B4F1804F07D0DFF80003844231
:100C300003D0DFF8FC02844203D136F07006686806
:100C40000643DFF8E40284420AD0B4F1804F07D0B3
:100C5000DFF8D802844203D0DFF8D402844203D103
:100C600036F44076E86806432660A9682000FFF75E
:100C7000BFFF29882000FFF7B9FFDFF8AC028442EC
:100C800003D1297C2000FFF7B5FF2000FFF7BCFF50
:100C9000012070BDF8B504000D00160000272800E3
:100CA000012808D010280CD0B0F5807F0FD0B0F507
:100CB000805F12D017E03100200000F03BF8070001
:100CC00011E03100200000F076F807000BE0310061
:100CD000200000F0B2F8070005E03100200000F02D
:100CE000F0F80700FFE73800C0B2F2BD02000023B1
:100CF000087B60F3070333F440738868034333F4DD
:100D000080634868034333F400630868034333F4A3
:100D10008053C889034333F400530869034333F411
:100D200080434869034333F40043486903435364F1
:100D3000012070472DE9F04104000D000021002240
:100D40000023206A400840002062266A6768D4F8C1
:100D500018805FEA98085FEA880838F07008286809
:100D600050EA080836F0020628690643760876003D
:100D7000686806436C48844212D136F008066869F8
:100D800056EA800636F00406A86856EA800637F46C
:100D90008077A869074337F40077E86957EA400786
:100DA0006760C4F81880E9682000FFF725FF266215
:100DB0000120BDE8F0812DE9F04104000D00002084
:100DC00000210022236A33F010032362266A676839
:100DD000D4F8188038F4407838F4E0482B6858EAA2
:100DE000032836F020062B6956EA031636F0100663
:100DF0006B6856EA03164C4B9C4213D136F08006C2
:100E0000686956EA801636F04006A86856EA8016E9
:100E100037F48067A86957EA800737F40067E86904
:100E200057EAC0076760C4F81880E9682000FFF738
:100E3000E5FE26620120BDE8F0812DE9F0410400C5
:100E40000D00002100220023206A30F4807020620F
:100E5000266A6768D4F81C805FEA98085FEA880809
:100E600038F07008286850EA080836F400762869D7
:100E700056EA002636F48076686856EA00262A4844
:100E8000844213D136F40066686956EA802636F447
:100E90008066A86856EA802637F48057A86957EA22
:100EA000001737F40057E86957EA40176760C4F83D
:100EB0001C80E9682000FFF7A3FE26620120BDE840
:100EC000F0812DE9F04104000D00002000210022F6
:100ED000236A33F480532362266A6768D4F81C803F
:100EE00038F4407838F4E0482B6858EA032836F4A0
:100EF00000562B6956EA033636F480566B6856EA7C
:100F00000336094B9C4204D137F48047A86957EA5D
:100F100080176760C4F81C80E9682000FFF772FE44
:100F200026620120BDE8F081002C01400004004051
:100F300000080040F0B510EB116491FAA1F5B5FA84
:100F400085F391FAA1F6B6FA86F7D4F800C05FF0FF
:100F50000F0EDBB29B001EFA03FE3CEA0E0CFFB242
:100F6000BB0012FA03F353EA0C0CC4F800C0F0BD46
:100F7000F0B510EB116491FAA1F5B5FA85F391FA89
:100F8000A1F6B6FA86F7D4F800C05FF0030EDBB224
:100F90009B001EFA03FE3CEA0E0CFFB2BB0012FAE5
:100FA00003F353EA0C0CC4F800C0F0BDF0B510EB2D
:100FB000116491FAA1F5B5FA85F391FAA1F6B6FAA2
:100FC00086F7D4F800C05FF0040EDBB29B001EFA77
:100FD00003FE3CEA0E0CFFB2BB0012FA03F353EA25
:100FE0000C0CC4F800C0F0BD30B4C3680C00240A77
:100FF00094FAA4F4B4FA84F533EA112312FA05F54D
:101000002B43C36030BC70472DE9F04104000D0054
:101010002F683F023F0C97FAA7F0B0FA80F85FFA0A
:1010200088F8380030FA08F0002832D0380030FA5A
:1010300008F0C0072AD5B8F1080F05D240F2011018
:1010400010FA08F0060007E05FF00111404608388A
:10105000814051F080610E006A6831002000FFF786
:1010600069FF2A6931002000FFF7BEFF6868012888
:1010700002D06868092809D1AA6831002000FFF76A
:1010800077FFEA6831002000FFF790FF18F10108B0
:10109000C7E70120BDE8F081C068400B10F00100F7
:1010A0007047026932F440520A4302617047426954
:1010B00032F440720A434261704770B4192303FB53
:1010C00001F39400B3FBF4F36424B3FBF4F41923A9
:1010D00003FB01F39500B3FBF5F5192303FB01F3C3
:1010E0009600B3FBF6F36426B3FBF6F6642303FB2A
:1010F00016552B0132336425B3FBF5F515F0F005D9
:1011000015EB0415192303FB01F39400B3FBF4F46E
:10111000192303FB01F39600B3FBF6F36426B3FB3C
:10112000F6F6642303FB1644230132336424B3FB35
:10113000F4F313F00F035D19ADB2856070BC704716
:10114000F8B584B005000E00002700242800FFF742
:10115000A3FF002831D1E9681D48014070680143B0
:10116000F068014330690143E960B1682800FFF786
:1011700098FF71692800FFF79AFF684600F067F84A
:101180001048854202D1039804000AE00E488542C7
:1011900002D10298040004E00C48854201D1029873
:1011A0000400002C09D03068002806D00120070078
:1011B000326821002800FFF780FF3800C0B205B078
:1011C000F0BD0000003801400044004000480040ED
:1011D000F3E9FFFF00B500BF1300964694461039AF
:1011E00028BFA0E80C50FAD85FEA417C28BF0CC0A9
:1011F00048BF40F8042BC90728BF20F8022B48BF7E
:1012000000F8012B00BD00004248006810F00C00FF
:1012100070474048006810F0F00070473D48006893
:1012200010F4E06070473B48006810F4605070476D
:101230003848006810F4803070473648006810F471
:101240007010704733480068C0F34040704710B5D5
:10125000040000F00EF82060206800F01EF86060C6
:10126000606800F025F8A060606800F02BF8E0608E
:1012700010BD10B50024FFF7C7FF002804D00428D4
:1012800004D0082804D006E0234805E0224803E003
:1012900000F022F800E0204810BD10B50400FFF770
:1012A000B8FF1E49C0F30310085CC440200010BD05
:1012B00010B50400FFF7B2FF1949000A085CC440EA
:1012C000200010BD10B50400FFF7ADFF1449C00A9F
:1012D000085CC440200010BD70B500240025FFF755
:1012E000A7FF06003000002803D0B0F5803F02D0F1
:1012F00008E00C4D07E0FFF7A5FF401C0649B1FBD5
:10130000F0F500E0074DFFF798FF800C801C00FB14
:1013100005F070BD0410024000127A005C1A00084B
:10132000A81A000800093D007047FEE7FEE7FEE747
:10133000FEE7704770477047704780B5A348006864
:1013400030F01000A1490860A1480078002803D0BF
:1013500000209F49087002E00020FFF790F801BDCF
:1013600080B501209A4908709A480068800640F1CB
:101370000E8199480068312800F0E080322800F0A2
:10138000E180332800F0E280342800F0E380352843
:1013900000F0E480362800F0E680372800F0E7808F
:1013A000382800F0E880392800F0E98042282DD064
:1013B000462819D0472863D0482800F08380492860
:1013C0006FD04A2800F08F804C2831D0522841D06D
:1013D000532851D0572800F09780712800F0D3800F
:1013E000772800F09E80D2E07C48006800F014F975
:1013F000C0B27B4908607B48006800F00DF9C0B2BC
:10140000794908606020FFF73AF8C0E07348006847
:1014100000F002F9C0B2724908607248006800F03A
:10142000FBF8C0B2704908601820FFF728F8AEE05A
:101430006A48006800F0F0F8C0B26949086069487D
:10144000006800F0E9F8C0B2674908602020FFF7A3
:1014500016F89CE06148006800F0DEF8C0B2604910
:1014600008606048006800F0D7F8C0B25E490860C4
:101470004020FFF704F88AE00020FFF700F886E03C
:101480006020FEF7FCFF5548006800F0DBF8002202
:10149000564B00F0FBF800F0CBF9C0B250490860A1
:1014A00075E06020FEF7EBFF4E48006800F0CAF8D8
:1014B00000224E4B00F0EAF800F0BAF9C0B24A49F7
:1014C000086064E01820FEF7DAFF4448006800F086
:1014D000B9F80022454B00F0D9F800F0A9F9C0B2E4
:1014E0003F49086053E01820FEF7C9FF3D480068F7
:1014F00000F0A8F800223D4B00F0C8F800F098F981
:10150000C0B23949086042E03948006850F0100024
:10151000374908603648006850F040003449086098
:1015200035E03348006850F4801031490860304895
:10153000006850F480002E49086028E02D4800F033
:1015400027F824E02C4800F023F820E02B4800F096
:101550001FF81CE02A4800F01BF818E05FF07C50F0
:1015600000F016F813E0274800F012F80FE02648C4
:1015700000F00EF80BE0254800F00AF807E02448D8
:1015800000F006F803E05FF07E5000F001F801BDC6
:1015900010B504001F48210000F068F911490860E7
:1015A0001C48210000F062F90C4908600D480068F1
:1015B00000F032F8C0B20C4908600848006800F03A
:1015C0002BF8C0B20649086010BD000010080040AA
:1015D0000C000020003801400438014004000020C5
:1015E0003400004008000020342C01400000E03F9F
:1015F000100C0140CDCCCC3DCDCC4C3E9A99993EBF
:10160000CDCCCC3E9A99193F3333333FCDCC4C3FB0
:101610006666663F00007F43C0F3C7517E390EDD2A
:10162000C217D1F1200106DD000240F00040C840A1
:10163000104450407047D04380F000407047002075
:1016400070470000C0F3C75181B1FF2906D0C11017
:10165000400721F0E04101F16051704741020CBFA9
:1016600040F4E0016FF000410020704700F00041BD
:1016700000020AD0B0FA80FC00FA0CF001F16051CF
:10168000A1EB0C5101EBD02140057047B0B581EAC8
:10169000030C0CF0004C40F2FF7515EA11541DBF0D
:1016A00015EA1357AC42AF4239E0E41923EA455337
:1016B00043F48013C90241F0004141EA505EC70281
:1016C0001100A7FB020200284FF00000EEFB0120F2
:1016D0004FF00001E3FB072118BF42F00102401860
:1016E00000214941E3FB0E01A4F580640F0302D2FF
:1016F00052004041494154F101046CDD470872F148
:10170000004250F1000051EB0451A1F580115CBF83
:1017100041EA0C01B0BD4CEA05510020B0BD05EA1C
:101720001357AC4214BFAF4241E050EA410E1CBF18
:1017300052EA430E02E061460020B0BD24423C4420
:101740001BD15FEA070EF6D0090302BF0146002055
:10175000AEF1140EB1FA81F7AEEB070401FA07FE01
:101760000C37C7F1200100FA07F7C8404EEA000E17
:1017700023EA455343F48013A2E733F00043B3FA5E
:1017800083F704BFB2FA82FE77440B3FE41BB7F144
:10179000200E2FBF02FA0EF3BB40C7F1200E22FA33
:1017A0000EFE38BF43EA0E03BA40641C82E750EADB
:1017B000410E14BF52EA430E6FF000014FF40017C0
:1017C00017EB430F8ABF194617EB410FB5E74CEAF9
:1017D00005510020B0BDD4F10104B4F120070FDAA7
:1017E000C4F12007520828BF42F0010210FA07F5A1
:1017F00001FA07F7E1BF2A43E0403843E1400FE038
:10180000352C98DCC7F1200452EA400220FA07F296
:1018100018BF42F0010231FA07F0A1400A4300214B
:1018200072F1004250F1000051EB0C01B0BD00001C
:10183000C1F30A5340F2FE329B1A14DDD3F12003A8
:101840004FEAE17208DDC90241EA505141F000401F
:10185000D84080185040704703F2E13010B1D243B5
:1018600082F000407047002070470000FF2212EA1B
:10187000D05C1DBF12EAD153944593422BE09C44A7
:10188000D30780EA01021A4043EA002043EA01211B
:10189000A1FB0030C04238BF40007CF17F010BDB70
:1018A000FE294ADA5B0842EAC15153EA006373F148
:1018B000004C51EB10207047D1F1080CDCF12001F5
:1018C0002FDB5B0810FA01F10B4320FA0CF073F1E7
:1018D00000415041704794451CBF02EAD1539342E6
:1018E00080EA010202F000421DD0400019D04900F8
:1018F00017D05BB9634514D00902B1FA81F399405E
:10190000BCEB030CC00140F00040C1E70002B0FA9C
:1019100080FC10FA0CF0B3EB0C0CC90141F0004153
:10192000B6E71000704740000AD0490008D010F117
:10193000807F94BF11F1807F02E042F0FF4070474A
:10194000D04370471348006850F001001149086007
:1019500011480168114801400F4801600D480168B5
:101960000F4801400B4801600A48006830F48020AD
:10197000084908600848006830F4FE00064908601D
:101980005FF41F00074908605FF0006006490860C7
:101990007047000000100240041002400000FFF8F1
:1019A000FFFFF6FE0810024008ED00E010B450F80A
:1019B000041B79B10268436802440830DC0744BF65
:1019C000A9F10104E31852F8044B43F8044B091F32
:1019D000F9D1ECE710BC704710B5074979441831CC
:1019E000064C7C44163404E00A68081D11448847FC
:1019F0000146A142F8D110BD080000001800000007
:101A0000ADFFFFFF10000000740000000000002088
:101A10000000000000F00DF8002801D0FFF7DCFF07
:101A2000AFF300800020AFF30080FEF77BFD00F0F5
:101A300002F80120704700F001B800000746384660
:101A400000F002F8FBE7000080B5AFF30080024A27
:101A500011001820ABBEFBE72600020000000000CA
:101A6000000000000102030406070809014880473E
:101A700001480047451900088D1A000800A24A04D1
:101A8000000000000000000000000000AFF3008034
:101A9000AFF30080FFF7BEFF000000000404040065
:101AA000000008000000080000000000010203041C
:101AB000FFF7FEBFFFF7FEBFFFF7FEBFFFF7FEBF5A
:101AC000FFF7FEBFFFF7FEBFFFF7FEBFFFF7FEBF4A
:101AD000FFF7FEBFFFF7FEBFFFF7FEBFFFF7FEBF3A
:101AE000FFF7FEBFFFF7FEBFFFF7FEBFFFF7FEBF2A
:101AF000FFF7FEBFFFF7FEBFFFF7FEBFFFF7FEBF1A
:101B0000FFF7FEBFFFF7FEBFFFF7FEBFFFF7FEBF09
:101B1000FFF7FEBFFFF7FEBFFFF7FEBFFFF7FEBFF9
:101B2000FFF7FEBFFFF7FEBFFFF7FEBFFFF7FEBFE9
:101B3000FFF7FEBFFFF7FEBFFFF7FEBFFFF7FEBFD9
:101B4000FFF7FEBFFFF7FEBFFFF7FEBFFFF7FEBFC9
:041B5000FFF7FEBFDE
:0400000508001A8D48
:00000001FF
